:1000000000308A005B280000FF00030E8301A1007E
:100010007F08A0000A08A8008A01A00E0408A20018
:100020007708A3007808A4007908A5007A08A6003C
:100030007B08A700831383120B1E20288B183328FC
:10004000220884002308F7002408F8002508F90096
:100050002608FA002708FB0028088A00210E8300E2
:10006000FF0E7F0E09000B138B138B1B34280B1212
:10007000AD01061C5328AD0A0130AE002E308400BD
:1000800083130008031952280130F800F701F70B19
:100090004728F80B46284A30F700F70B4D28502820
:1000A000800B44283928AC012D08AB00D0308B04DC
:1000B0008B108A112028840183131F308305831637
:1000C0008E15073083129F00A901AA01AB01AC0174
:1000D00006308316850001308600831286120612D0
:1000E0000613051185100610861083160117D030EF
:1000F00083128B04851C97282C082A02031C8A284B
:10010000031D862829082B0203188A280616861242
:1001100006138D28061286120617051D95282C0831
:10012000AA002B08A900861496288610B1282C084E
:100130002A02031CA528031DA12829082B02031845
:10014000A528061686120613A82806128616061378
:10015000051DB0282C08AA002B08A9008614B12878
:0601600086107A286300FE
:02400E00703F01
:00000001FF
;PIC16F628A
